:020000040800F2
:10000000083000202D020008B92A0008D128000875
:10001000B52A000831070008253400080000000058
:100020000000000000000000000000002D2C00086F
:100030006D07000800000000BD2A0008312C0008F0
:10004000470200084702000847020008470200086C
:10005000470200084702000847020008470200085C
:100060004702000847020008470200083507000859
:10007000470200084702000847020008470200083C
:10008000470200084702000847020008470200082C
:10009000470200084702000847020008470200081C
:1000A000470200084702000847020008470200080C
:1000B000470200080000000000000000470200089E
:1000C000470200080000000000000000470200088E
:1000D000000000004702000847020008000000007E
:1000E000470200084702000800000000000000006E
:1000F0000000000000000000000000000000000000
:10010000000000000000000000000000470200089E
:10011000000000000000000047020008470200083D
:10012000470200084702000847020008470200088B
:10013000470200080000000000000000000000006E
:10014000470200084702000847020008470200086B
:10015000470200084702000847020008470200085B
:10016000470200084702000847020008000000009C
:1001700047020008470200080000000000000000DD
:1001800047020008470200084702000800F002F892
:1001900000F03CF80AA090E8000C82448344AAF1E5
:1001A0000107DA4501D100F031F8AFF2090EBAE8E3
:1001B0000F0013F0010F18BFFB1A43F0010318479B
:1001C000685F0000885F0000103A24BF78C878C1DB
:1001D000FAD8520724BF30C830C144BF04680C604D
:1001E000704700000023002400250026103A28BF95
:1001F00078C1FBD8520728BF30C148BF0B60704799
:100200001FB504F08BFD1FBD10B510BD00F0D4F874
:100210001146FFF7F5FF04F06FF900F0F2F803B4B0
:10022000FFF7F2FF03BC00F0F5F800000948804733
:1002300009480047FEE7FEE7FEE7FEE7FEE7FEE7C8
:10024000FEE7FEE7FEE7FEE704480549054A064BE0
:1002500070470000DD2C00088D010008082A0020EE
:1002600008300020082C0020082C002053EA020C43
:1002700000F069802DE9F04B4FF00006002B1FBF06
:10028000B3FA83F503FA05F424FA05F65E4012BFCB
:100290001643B2FA82F502FA05F4C5F120051EBF35
:1002A00022FA05FC44EA0C04203556EA044C4FEAD5
:1002B000144418BF641C4FF000084FF0000990422E
:1002C00071EB030C39D3002919BFB1FA81F701FA98
:1002D00007F6B0FA80F700FA07F6C7F120071EBF4D
:1002E00020FA07FC46EA0C062037B6FBF4FCA7EB25
:1002F0000507103F07F01F0BCBF120062CFA06F67E
:100300000CFA0BFB44BFB3460026202FA4BF5E4669
:100310004FF0000B5BEA060C08BF4FF0010B19EB26
:100320000B0948EB0608ABFB027C06FB02CC0BFB7F
:1003300003CCC01B71EB0C01C1E70B4602464146E2
:100340004846BDE8F08B13B5084318BF4FF0FF30A7
:100350000146AFF30080BDE81C4070474FF000023B
:1003600000B5134694469646203922BFA0E80C50AB
:10037000A0E80C50B1F12001BFF4F7AF090728BF86
:10038000A0E80C5048BF0CC05DF804EB890028BF02
:1003900040F8042B08BF704748BF20F8022B11F02B
:1003A000804F18BF00F8012B7047704770477047A7
:1003B00000487047100000207546FFF7F9FFAE4671
:1003C00005006946534620F00700854618B020B561
:1003D000FFF73AFFBDE820404FF000064FF000075E
:1003E0004FF000084FF0000BAC46ACE8C009ACE899
:1003F000C009ACE8C009ACE8C00921F007018D468E
:10040000704710B50446AFF300802046BDE81040A9
:10041000FFF705BF01491820ABBEFEE7260002002A
:100420007047000070B5044600688268836802F077
:10043000040203F00803D21800F0BA80C2689201E7
:100440006ED5627E012A6BD1227E012A68D10168B5
:10045000490661D40121CAF24031026852065BD4D8
:100460000268520658D4026852065CBF02685FEA0E
:10047000426251D4026852065CBF02685FEA42627F
:100480004AD4026852065CBF02685FEA426243D403
:10049000026852065CBF02685FEA42623CD40268AE
:1004A00052065CBF02685FEA426235D402685206B7
:1004B0005CBF02685FEA42622ED4026852065CBFEB
:1004C00002685FEA426227D4026852065CBF026893
:1004D0005FEA426220D4026852065CBF02685FEAAB
:1004E000426219D4026852065CBF02685FEA426247
:1004F00012D4026852065CBF02685FEA42620BD403
:10050000026852065CBF02685FEA426204D41B398B
:1005100044D002685206A0D540210160012105E0C7
:10052000022903D10221082612E000BF8268520787
:100530000AD58268920707D482684FF6C073C7F65F
:10054000FF731A401032826001294FF0040610D068
:10055000826812070AD58268920707D482684FF62C
:10056000C073C7F6FF731A4020328260032908BFA8
:100570000C2600F03BFF21688968314218D00546FF
:1005800003E000BF8068304212D000F02FFF411B13
:1005900020680629F6D381683142F3D0606D40F0BF
:1005A00010006065A06D40F00100A065012070BDE5
:1005B000002070BD0146806A436D426D13F0500FFC
:1005C00008D0D20648BF00F091BAC06C426B084612
:1005D000104700BF42F40071416501680B68CA68AA
:1005E0001B0703D4910707D500F07CBA12F4406FC3
:1005F000FAD1C9688904F7D4416D21F4807141654D
:10060000416DC90448BF00F06DBA416D41F0010170
:10061000416500F067BA0000806A416D41F0400119
:100620004165816D41F00401816500F05FBA000011
:10063000806A00F059BA000070B582B0044600200C
:10064000019021688A68D20711D14FF6C076C7F6AB
:10065000FF76886806F17F0210420BD0606D40F093
:1006600010006065A06D40F00100A065012002B09F
:1006700070BD00BF8868304040F00100886040F2E3
:100680000830C5F204000068000221D400F0AEFE7C
:1006900021680A68D20717D1054602E00868C0073A
:1006A00012D18868C00704D18868304040F001004A
:1006B000886000F09BFE401B21680328EED3086889
:1006C000C007EBD1CAE700BF002002B070BD00BF79
:1006D00040F20800C2F20000006842F6635180094F
:1006E000C0F23E51A0FB0101880900EB40000C2143
:1006F00001EB8000019001980028C7D001980138D3
:10070000019001980028C1D001980138019001980A
:100710000028BBD001980138019001980028B5D07D
:1007200001980138019001980028E7D1AEE7000058
:10073000FEE7000080B541F2E400C2F2000000F0E4
:1007400067FC40F27000C2F200000121017041F22A
:100750008000C2F2000000F08DFB41F22C10C2F2CA
:100760000000BDE8804001F04FBF0000704700006E
:10077000EFF3108072B600BFFEE70000F0B581B065
:100780000022009290F85020012A03D1022108464D
:1007900001B0F0BD0123076880F85030BB685B07EB
:1007A00000F19A804B68052B06D8023B032B9ABFB9
:1007B000C8A454F823300623C3F3012207EB8202B6
:1007C0000C68156B03F01F031F269E4025EA0606E2
:1007D000C4F3846505FA03F333431363BA68BB6853
:1007E00002F0040203F00803D21840F090800A6877
:1007F0008B68C2F3406607EB86067569C2F3045244
:1008000007249440A54303FA02F22A437261D1E916
:10081000043CFC68042B65D13A6E3A6E0B68C2F357
:10082000846293FAA3F6C3F3846C6FF3DF43B6FAE2
:1008300086F5002B2C464FF6FF7E08BF6446A24289
:10084000C0F2070E0CD13A6E22F000423A660A68F6
:1008500002EA0E03C2F3846C92FAA2F2B2FA82F5B3
:100860007A6E7A6E002BC2F384622C4608BF64460F
:10087000A2420CD17A6E22F000427A660A6802EA3D
:100880000E03C2F3846C92FAA2F2B2FA82F5BA6E47
:10089000BA6E002BC2F384622C4608BF6446A242A3
:1008A0000CD1BA6E22F00042BA660A6802EA0E0360
:1008B000C2F3846C92FAA2F2B2FA82F5FA6EFA6E80
:1008C000002BC2F3846208BF6546AA421FD1FA6EAC
:1008D00022F00042FA661AE0416D41F020014165C4
:1008E0000121E8E006220E6807EB830302EA940286
:1008F0001D6E4FF200040CFA02F2C0F2FF3406F053
:10090000F846254032432A4342F000421A66BA684C
:10091000D20750D10C68CA68D7F8B06023466FF38D
:10092000DF4326EA030C4FF6FF7602F01805C0F20B
:100930000706EE4000252640C4F27F0546EA0C0675
:10094000AA42C7F8B06036D193B194FAA4F2B2FAD1
:1009500082F2013202F01E03092B02F01F0310D8AD
:1009600001229A4003EB430342EA035315E000BF20
:10097000012202EB946202F01E030A2B02F01F0315
:10098000EED3012200269A4003EB4303CFF6206604
:1009900006EB03531A4342F00073C3F3406607EBC0
:1009A00086068A687569C3F3045307249C40A543EF
:1009B0009A402A43726109680022C8F20802114273
:1009C0002CD040F20833C5F204031C680022CCF29C
:1009D0005272914204F0E07C08BF14F400021FD070
:1009E0000022CCF68432914208BF14F080721DD0F0
:1009F0000122C8F2000291424FF0000108BF14F436
:100A0000800258D1A3F54272974254D1196821F05F
:100A1000E07141EA0C0141F480014AE000214AE022
:100A2000A3F542718F4207D0002144E0A3F5427143
:100A30008F4237D000213EE0196842F6635221F020
:100A4000E07141EA0C0141F40001196040F2080133
:100A5000C2F200010968C0F23E528909A1FB0212EC
:100A6000910901EB41010C2202EB810100910099F7
:100A700041B3009901390091009929B300990139D6
:100A80000091009911B30099013900910099F9B1D1
:100A9000009901390091009900294FF00001E8D137
:100AA00009E000BF196821F0E07141EA0C0141F052
:100AB000807119600021002280F85020084601B0A2
:100AC000F0BD00BF0021F6E70021F4E70021F2E7C6
:100AD0000021F0E70C0000001200000018000000E8
:100AE00000010000704700007047000070470000E0
:100AF000B0B582B00446002001904CB1606D58B191
:100B000021688868800012D48868C00019D54CE03C
:100B1000012002B0B0BD00BF204600F0E3F8002085
:100B2000A06584F85000216888688000ECD588684A
:100B30004FF6C072C5F6FF72104088608868C0002A
:100B400033D44FF6C0728868C5F6FF7202F1805246
:100B5000104000F18050886040F20800C2F20000AE
:100B6000006842F663528009C0F23E52A0FB0202C6
:100B70009009022202EB400001900198A8B100BF49
:100B8000019801380190019878B1019801380190DD
:100B9000019850B1019801380190019828B101984D
:100BA0000138019001980028EAD18868C00009D472
:100BB000606D40F010006065A06D40F00100A06520
:100BC000012000E000208A68636D02F0040203F057
:100BD0001003D218626D6BD122F481720232626509
:100BE0008A68D20712D140F208324FF60053C5F29C
:100BF0000402CFF6FF73D358DB0707D1D4F804C043
:100C0000136823F47C1343EA0C031360627E636B66
:100C100043EA4232D4E902C31A4394F8203042EA4C
:100C20000C02012B42EA034207D1D4F824C000236E
:100C3000CFF6FE7303EB4C431A43A36A33B1D4F8E7
:100C40002CC003F4707343EA0C031A43D1F80CC0B0
:100C50004CF20703CFF6F07303EA0C031A43CA60A1
:100C60008A6812072DD494F83030227E5B0094F805
:100C700038C043EA823ECB6844F2020223EA020211
:100C800042EA0E02CA600A69BCF1010F16D140F2B5
:100C9000FD7322EA030CD4E90F32D4E911E543EAEB
:100CA0000C031A4342EA0E022A4342F0010207E013
:100CB00042F010010120616502B0B0BD22F00102D6
:100CC0000A6122690B6B012A23F00F0202D1E3694A
:100CD000013B1A430A63616D012262F30101616500
:100CE00002B0B0BD70B59CB004460020CDE91A003A
:100CF00002A820303421FFF731FB20680021C5F223
:100D00000401884202D01CB070BD00BF4FF4804087
:100D100002904FF0805014900120CDE903001C2078
:100D2000059007200690082008904FF0807002255B
:100D3000099002A8079500F06FFC002818BFFFF784
:100D400017FD41F24C00C4F202000168002641F494
:100D500000510160016801F400510191019901689D
:100D600041F001010160006817A900F00100019045
:100D700001980B2018904FF090401795199600F0AD
:100D800055FA41F2E4050820C2F20005C4F202005F
:100D90008021C5E9000605F110004FF480724FF480
:100DA00080634EC02846C5E902662E6200F086F9CF
:100DB000002818BFFFF7DCFCE564AC621CB070BD16
:100DC00070B5044600688068400703D494F850006A
:100DD000012801D1022070BD012084F85000204676
:100DE00015460E46FFF728FC20B1002184F850106C
:100DF00070BD00BF606D40F60171884300F58070E2
:100E00006065606D40F2B553C0044FF0000044BF10
:100E1000A06D20F00600A065E06C40F23161226810
:100E2000C0F60003C0F6000140F2196E4FF0000C4E
:100E3000C0F6000EC0E90B311C21C0F834E011608F
:100E400084F850C051682B4641F010015160D168C0
:100E500041F00101D16002F14001324600F094F905
:100E600021684FF6C0738A68C7F6FF731A400432D0
:100E70008A6070BD70B5044690F85000012804BF28
:100E8000022070BD012084F8500020460321FFF7A6
:100E9000C9FA054620B1002084F85000284670BDEC
:100EA0002168E06CCA6822F00102CA6090F825202F
:100EB000022A40D100F086F8E0B305462068616D53
:100EC00041F040016165416821F010014160816895
:100ED0008268D207DFD011F00201DCD1816801F015
:100EE0000D0101291ED181684FF6C072C7F6FF724D
:100EF0001140023181600321016000F077FA21681E
:100F00008968C907C7D0064603E000BF8068C007EC
:100F1000C1D000F06BFA811B20680329F6D38168E9
:100F2000C907F3D0606D40F010006065204650F8AE
:100F3000581F3FE02168486820F01000486088682A
:100F40008A68D20717D010F0020014D1886800F028
:100F50000D00012826D188684FF6C072C7F6FF72CF
:100F60001040023088600320086000F03FFA2168DA
:100F70008968C90708D1204650F8541F41F2011270
:100F80009143002516E000BF054602E08068C007D7
:100F9000F1D000F02BFA411B20680329F6D38168B9
:100FA000C907F3D0606D012540F010006065204650
:100FB00050F8581F41F001010160002084F85000F2
:100FC000284670BD014690F82500022818D108680F
:100FD000D1E910C3026822F00E020260026822F01A
:100FE0000102026003F01C00012202FA00F0CCF8BA
:100FF0000400002081F82520002281F82420704779
:101000000420C8630120002281F8242070470000DA
:10101000B0B5D0E910C30268DCF8001003F01C037F
:101020000424D2F800E09C400C4218BF1EF00405D6
:1010300022D102249C400C4218BF1EF0020529D187
:10104000D940090724D51EF0080108BFB0BD1168BA
:1010500021F00E011160012101FA03F2CCF8042005
:10106000C16380F82510416B002280F8242079B1FB
:10107000BDE8B040084700BF1168890603D4116875
:1010800021F004011160CCF80440016B0029EFD17C
:10109000B0BD00BF1168890606D4116821F00A01AD
:1010A0001160012180F82510CCF80440C16A0022AB
:1010B000002980F82420DBD1EAE70000002804BFE3
:1010C000012070472DE9F04740F2000CC4F2020CF9
:1010D00002684FF6F8310CF5816ECBF6FD71724562
:1010E00038BF01F580614CF6CD431144CCF6CC43BA
:1010F000A1FB03136FF003010CF5806701EA93086D
:101100004FF00203D0E9024AD0F810903CBF00270C
:10111000C4F20207C0E9107880F82530136847F65A
:10112000F077BB43D0E9057143EA0A0343EA0903B8
:10113000D0E907653B431943314329432143B4F5C3
:10114000804F116015D04FF4956408F01C010F23F7
:10115000724538BFA8245CF804208B409A434CF8B1
:10116000042042685CF8043002FA01F119434CF89B
:10117000041000210122C16380F8252080F824108A
:10118000BDE8F04708467047F0B590F824C0BCF1C0
:10119000010F36D04FF0010E80F824E090F825C002
:1011A000BCF1010F2AD14FF0020C80F825C04FF09E
:1011B000000CC0F83CC0D0F800C08468056B066C19
:1011C000DCF80070102C27F00107CCF80070406CA0
:1011D00000F01C000EFA00F070600846CCF80430F5
:1011E00004BF10460A46CCF80800CCF80C20DCF806
:1011F00000004DB140F00E000EE000BF002180F86D
:1012000024100220F0BD00BF20F00400CCF8000044
:10121000DCF8000040F00A00CCF80000DCF8000028
:1012200040F00100CCF800000020F0BD2DE9F04FA7
:1012300082B00D68002D00F0CD8040F2004E40F6E7
:101240000002C4F2010EC4F60002072300240126A6
:101250004FF0000C0027904208BF022300934CE09F
:1012600040F20042C4F60002DDF800A0904208BF40
:101270004FF0010A0CF00C030F259D4029EA0505EB
:101280000AFA03F3BA082B434BF82230DEF80820A1
:101290004B6842EA080540F20C49DE0258BF22EAD8
:1012A0000805CEF80850C4F20109D9F800209E02C2
:1012B00042EA080558BF22EA0805C9F80050DEF8DE
:1012C00004209E0342EA080558BF22EA0805CEF82A
:1012D0000450DEF80020012642EA0805DB0358BF6F
:1012E00022EA0805CEF800500D68013735FA07F2FA
:1012F0000CF1040C04F102046CD006FA07F215EAB2
:101300000208F1D0D1F804A003250AF0030BABF1D9
:101310000103A540012B6FEA05090FD88368CD684A
:1013200003EA0903A5402B438360436823EA0202D2
:10133000CAF30013BB401A43426005E0BBF1030F40
:1013400002D14FF0030B20E0C2688B6802EA090269
:10135000A3401A43BBF1020FC26016D16FF0030223
:1013600002EA570202440CF01C050F23D2F820A019
:1013700003FA05FB0B692AEA0B0AAB4043EA0A03AE
:101380001362D1F804A00AF0030B02680BFA04F30D
:1013900002EA09021A431AF4403F0260A4D041F263
:1013A0006003C4F202031A68AEF57E7B42F00102CC
:1013B0001A601A68B0F1904F02F001020192019A8E
:1013C00027F003025BF802907FF44AAF4FF0000A67
:1013D00050E700BF02B000F000B830BCBDE8C08FDD
:1013E0001823002A08BF2823C150704742F6002066
:1013F000C2F200000068704740F2000042F600218F
:10140000C2F20000C2F2000100780A6810440860CD
:101410007047000080B5032000F08CF8002000F039
:1014200009F800281CBF012080BD00F029F8002029
:1014300080BD000070B540F20006C2F200063178AF
:10144000E1B1044640F20800C2F200004FF47A72A3
:101450000068B2FBF1F1B0FBF1F000F0D3FF0F2C0C
:101460004FF0010508D838B94FF0FF30214600226F
:10147000002500F033F87460284670BD012070BD6F
:1014800082B041F25800C4F20200816841F00101CB
:101490008160816801F0010101910199016841F0C9
:1014A00080510160006800F080500090009802B008
:1014B00070470000002848BF7047C1B200F01F000D
:1014C000012202FA00F04EF20012CEF2000242EACD
:1014D000D10121F0030108607047000010B54EF6FD
:1014E0000C5CCEF2000CDCF80030C3F3022E8EF060
:1014F0000704042C28BF0424BEF103034FF0FF3E71
:101500000EFA04F438BF0023A14399400EFA03F306
:101510009A43114300F00F0200F160430901043ABD
:1015200003F564436244002848BF02F10C031970BC
:1015300010BD00004EF60C51CEF200010A684FF6C5
:10154000FF031A4060F30A2242F0806040F0FD7011
:101550000860704747F20001C4F200010A68B0F564
:10156000007F02F4C06031D1B0F5007F2CD0086854
:10157000012262F34A20086040F20800C2F2000033
:101580000068322250434DF68362C4F21B32A0FB46
:101590000202900C4A69520511D5421C0FD04A69CB
:1015A00052050CD558B14A69520508D5012806D014
:1015B0004A69520503D50228A0F10400EAD148691E
:1015C000400544BF0320704700207047B0F5806F8E
:1015D000FAD00868022262F34A20086000207047AF
:1015E00047F20000C4F20000006800F4C0607047D9
:1015F00047F20000C4F20000016841F4807101600C
:101600007047000041F20000C4F20200016841F09E
:1016100004010160704700002DE9F04381B00446E9
:10162000407841F288070007C4F202071ED5E06B3C
:1016300080B1B0F5400F14D0B0F5000F40F0148128
:1016400057F87C0C40F4803047F87C0C4FF40000D5
:1016500007E000BF201D002101F032FA814638B9B1
:10166000E06B396821F44001084338604FF000090D
:10167000A078800752D557F8300C10F080580BD165
:1016800057F8300C40F0805047F8300C57F8300CC9
:1016900000F080500090009847F20005C4F2000569
:1016A000286840F480702860FFF7A0FE064600BF5F
:1016B0002868C00508D4FFF799FE801B0228F7D9D7
:1016C0004FF0030921E000BFB9F1000F1DD1B86848
:1016D00010F4407011D0216D88420BD0B868B96801
:1016E00020F4407041F48031B960B96821F4803150
:1016F000B960B860C00740F0BF80B868216D20F4C1
:10170000407008434FF00009B860B8F1000F05D1F0
:1017100057F8300C20F0805047F8300C2168C8078B
:101720000ED1880714D488061AD4880520D4480519
:1017300026D448062CD4C80532D4880438D449E0CD
:101740003868226A20F00300104338608807EAD521
:101750003868626A20F00C00104338608806E4D5CF
:101760003868A26A20F44060104338608805DED5EE
:101770003868626B20F44020104338604805D8D5A3
:101780003868A26B20F44010104338604806D2D568
:101790003868E26A20F4405010433860C805CCD560
:1017A0003868226B20F4403010433860880411D52B
:1017B0003A68206C22F040620243B0F1806F3A60D8
:1017C0001ED0B0F1006F05D157F87C0C40F48010AA
:1017D00047F87C0C480327D53A68606C22F04062D9
:1017E0000243B0F1806F3A6016D0B0F1006F1BD1A8
:1017F00057F87C0C40F4801047F87C0C14E000BFD4
:10180000201D012101F05CF92168002818BF8146E4
:101810004803E1D408E000BF201D012101F050F988
:101820002168002818BF8146480410D53868A26C8A
:1018300020F040501043B2F1805F386007D1201D86
:10184000022101F03DF92168002818BF81460804F3
:1018500005D53868E16C20F0804008433860484680
:1018600001B0BDE8F08300BF4FF00109A078800708
:101870003FF501AF52E700BFFFF7B8FD064641F262
:1018800088354FF0030900BFB86880073FF535AFD2
:10189000FFF7ACFD801BA842F6D936E72DE9F043EF
:1018A00081B000286BD042F20008C4F2020804465E
:1018B000D8F800000D4600F0070088420CD2D8F896
:1018C000000020F007002843C8F80000D8F8000006
:1018D00000F00700A84252D1206841F2080910F038
:1018E0000201C4F202090DD0A268D9F8003003F059
:1018F000F0039A4206D9D9F8003023F0F0031A43D6
:10190000C9F80020C2072DD169B1A168D9F800201B
:1019100002F0F002914206D2D9F8002022F0F00243
:101920001143C9F80010D8F8001001F00701A942CE
:101930000CD9D8F8001021F007012943C8F800108D
:10194000D8F8001001F00701A94218D141071BD4B3
:10195000000723D4D9F80000D9F8041010F00C00C7
:101960002CD131E0606800285ED0022800F07E8033
:10197000032840F0818059F8081C890158D40120BF
:1019800001B0BDE8F08300BFD9F80010E26821F48F
:10199000E0611143C9F800100007DBD5D9F8000059
:1019A000216920F4605040EAC100C9F80000D9F86C
:1019B0000000D9F8041010F00C0005D00C2829D133
:1019C00001F00301012925D159F8081C090703D4A6
:1019D000D9F88C10090A02E059F8081C090944F6E4
:1019E000585201F00F01C0F6000252F821100028F1
:1019F0000A4618BF00220C2871D1D9F8040000F063
:101A00000300022846D0032804BF41F20021C0F29F
:101A10007A0143E0042857D008285BD141F2002224
:101A2000C0F27A025BE000BF59F8081C8907A6D50E
:101A3000D9F8001021F003010843C9F80000FFF7AE
:101A4000D5FC064641F28837D9F80000616800F0FD
:101A50000C00B0EB810F15D0FFF7C8FC801BB8421B
:101A6000F2D9032001B0BDE8F08300BF59F8081C8B
:101A700089037FF584AFDBE759F8081C49057FF53A
:101A80007EAFD5E7206800F0020100297FF43DAF6A
:101A900049E700BF42F20041C0F2F401D9F8040066
:101AA000D9F80420C0F30210C2F306225143D9F83A
:101AB00004200130B1FBF0F0C2F34161022202EBDD
:101AC0004101B0FBF1F20AE042F20042C0F2F4023E
:101AD00005E000BF002200210C283FF48EAFD9F8AA
:101AE000000044F64051C0F30310C0F60001085C4A
:101AF00000F01F0022FA00F140F20400C2F20000E0
:101B000040F208020068C2F20002116001B0BDE8B4
:101B1000F043FFF78FBC000040F2080041F20801DB
:101B2000C2F20000C4F202010068096844F6505293
:101B3000C1F30221C0F60002515C01F01F01C84050
:101B40007047000040F2080041F20801C2F20000B4
:101B5000C4F202010068096844F65052C1F3C22180
:101B6000C0F60002515C01F01F01C8407047000040
:101B700041F20C01C4F2020151F8040C10F00C0205
:101B8000086805D00C2A29D100F00300012825D1CE
:101B900051F80C0C000703D4D1F88800000A02E0C9
:101BA00051F80C0C000944F6585300F00F00C0F631
:101BB000000353F82030002A184618BF00200C2AD2
:101BC00018BF7047086800F00300022810D00328EF
:101BD00004BF41F20023C0F27A030DE0042A1FD0B3
:101BE000082A23D141F20020C0F27A00704700BFDA
:101BF00042F20043C0F2F40308680A68C0F302101E
:101C0000C2F30622096801305A43B2FBF0F0C1F377
:101C10004161022202EB4101B0FBF1F0704700BFCD
:101C200042F20040C0F2F400704700BF00200023E1
:101C3000C5E700002DE9F04383B0002800F03883A9
:101C400041F200060446C4F20206B068F168227848
:101C500000F00C09D00601F003081DD42078C0075D
:101C600000F08180B9F1080F76D0B9F10C0F08BFF0
:101C7000B8F1030F70D06068B0F5803F07D0B0F5C1
:101C8000A02F40F04B82306840F4802030603068F4
:101C900040F4803030604CE2B9F1000F1ED0B9F151
:101CA0000C0F08BFB8F1010F18D0A16930680029E6
:101CB00000F0968140F001003060FFF797FB054689
:101CC0003068800700F19E81FFF790FB401B0228DF
:101CD0004FF00300F4D903B0BDE8F083306880070B
:101CE00003D5A069002800F0E382256A3068000768
:101CF00000F13E81D6F89400000900F0F000854222
:101D000000F23C813068B9F1000F40F0080030600B
:101D1000306820F0F00040EA050030607068E1694A
:101D200020F47F4040EA0120706040F0AF82B06D47
:101D3000C00000F14B82B06D40F08050B065B06DD6
:101D400000F0805002900298FFF74AFCB16D21F03C
:101D50008051B1653CE200BF3068800303D5606804
:101D6000002800F0A582207880072DD5B9F1040F56
:101D70001CD0B9F10C0F08BFB8F1020F16D0E16802
:101D80003068002900F0E48140F480703060FFF793
:101D90002DFB0546306840050FD4FFF727FB401B9D
:101DA00002284FF00300F5D995E700BF30684005E1
:101DB00003D5E068002800F07B827068216920F07C
:101DC000F85040EA016070602078000760D4207805
:101DD000400775D42078800600F1AE80A06A002804
:101DE00000F00C83022840F01F81F068E16A00F0E7
:101DF00003028A4240F03081226B6FF00F0300F043
:101E0000700103EB0212914240F02681616B00F4F5
:101E1000FE42B2EB012F40F01F81A16B00F078422F
:101E2000B2EBC16F40F01881E26B0023CFF6E07394
:101E300003EA025200F4C001A2F50012914240F000
:101E40000B81216C4FF07E4202EA016100F0C0601C
:101E500001F17E41884240F0FF803068800100F14E
:101E6000CD82306840F080703060F06840F0807063
:101E7000F060FFF7BBFA04463068800100F1BE82D3
:101E8000FFF7B4FA001B02284FF00300F4D922E751
:101E90006169D6F89400002900F08C8040F00100C0
:101EA000C6F89400FFF7A2FA054600BFD6F89400E2
:101EB00080078CD4FFF79AFA401B0228F6D929E153
:101EC000B06D10F0805808D1B06D40F08050B06512
:101ED000B06D00F080500090009847F20007C4F207
:101EE00000073868C00513D4386840F48070386043
:101EF000FFF77CFA054600BF3868C00508D4FFF735
:101F000075FA401B02284FF00300F5D9E3E600BF45
:101F1000A068012808D0052840F0DE80D6F890009F
:101F200040F00400C6F89000D6F8900040F00100A0
:101F3000C6F89000DFE000BF616AD6F8980000297B
:101F400000F0B48040F00100C6F89800FFF74EFAA8
:101F5000054600BFD6F8980080073FF53FAFFFF772
:101F600045FA401B02284FF00300F3D9B3E600BF47
:101F7000306800F0F00085427FF6C4AEB06DC0005E
:101F800000F18680B06D40F08050B065B06D00F01B
:101F9000805001900198FFF723FBB16D21F0805133
:101FA000B165B0F5007F79D0802D40F2E380032049
:101FB000EBE000BF20F00100C6F89400FFF716FA2E
:101FC000054600BFD6F8940080077FF500AFFFF705
:101FD0000DFA401B02284FF00300F3D97BE600BF47
:101FE00020F001003060FFF701FA054630688007F5
:101FF0007FF534AEFFF7FAF9401B02284FF00300DB
:10200000F4D968E6306840F0080030603068D4E900
:10201000072120F0F00008433060706820F47F4012
:1020200040EA0220706019E6B9F10C0F00F040811F
:10203000306820F080703060FFF7D8F9044600BFA8
:102040003068800140F1EE80FFF7D0F9001B0228D4
:102050004FF00300F4D93EE6B9F10C0F00F02881EF
:102060003068400100F12481306820F080703060D9
:10207000FFF7BCF905463068800140F18181FFF728
:10208000B5F9401B02284FF00300F4D923E600BF46
:10209000FFF7A6FAB0F5007F7FF486AF812D73D3EA
:1020A0000120A02D88BF02206FE000BF20F00100BA
:1020B000C6F89800FFF79AF9054600BFD6F89800D1
:1020C00080077FF58BAEFFF791F9401B02284FF098
:1020D0000300F3D9FFE500BFD6F89010002821F0E7
:1020E0000101C6F89010D6F8901021F00401C6F84E
:1020F000901000F07B80FFF779F9054641F28837B0
:10210000D6F89000800700F18380FFF76FF9401B3D
:10211000B842F5D9032003B0BDE8F0833168002848
:1021200021F480313160316821F48021316000F088
:102130008580FFF75BF90546306880033FF513AEF5
:10214000FFF754F9401B64284FF00300F4D9C2E5AF
:1021500020F480703060FFF749F90546306840058B
:102160007FF532AEFFF742F9401B02284FF0030023
:10217000F4D9B0E5A5F17000B0FA80F04009802DE7
:1021800008BF022001E000BF002042F20001C4F2BB
:1021900002010A6822F0070202440A60096801F09D
:1021A0000701814240F08480306840F008003060D0
:1021B0003068D4E9072120F0F000084330607068EF
:1021C00020F47F4040EA022070605FE0FFF708FAE9
:1021D000B0F5007F06D1812D40D30120A02D88BF0E
:1021E000022045E0802D3BD9032041E0FFF7FEF8B7
:1021F000054641F28837D6F89000800708D5FFF7EA
:10220000F5F8401BB8424FF00300F4D963E500BF76
:10221000B8F1000F7FF4DEADB06D20F08050B065F6
:10222000D8E500BFF0684FF6FC71CFF6EE610840CC
:10223000F060002003B0BDE8F08300BFFFF7D6F8E0
:102240000546306880037FF58EADFFF7CFF8401B61
:1022500064284FF00300F4D93DE500BF002007E0FB
:10226000A5F17000B0FA80F04009802D08BF02206F
:1022700042F20001C4F202010A6822F0070202449D
:102280000A60096801F00701814211D1B068F16864
:1022900010F00C0005D00C282AD101F0030101290F
:1022A00026D13168090707D4D6F89410090A05E049
:1022B000012003B0BDE8F0833168090944F65852A3
:1022C00001F00F01C0F6000252F8211000280A4662
:1022D00018BF00220C2837D1F06800F00300022854
:1022E00010D0032804BF41F20021C0F27A010DE0B2
:1022F00004281FD0082823D141F20022C0F27A021C
:1023000022E000BF42F20041C0F2F401F068F2683E
:10231000C0F30210C2F306225143F2680130B1FB50
:10232000F0F0C2F34161022202EB4101B0FBF1F295
:102330000AE000BF42F20042C0F2F40204E000BF33
:10234000002200210C28C7D0B06844F64051C0F3E9
:102350000310C0F60001085C00F01F0022FA00F133
:1023600040F20400C2F2000040F208020068C2F22B
:1023700000021160FFF75EF800287FF4ACAC6DE45A
:10238000F06848F28C01C0F29D1104F12C0700EABC
:10239000010C8ECF6FF00F00D4E90F5400EB021048
:1023A0000022CFF6E07241EA0C0102EA055208432E
:1023B000A2F500124FF07E4540EA032005EA0465CD
:1023C000104305F17E4540EAC7602843F06030685D
:1023D00040F080703060F06840F08070F060FFF78F
:1023E00005F804463068800108D4FEF7FFFF001BA3
:1023F00002284FF00300F5D96DE400BF002003B0C0
:10240000BDE8F083411E0020B0EB116F1CBF01201E
:1024100070474EF21002CEF2000251604EF6235188
:10242000CEF20001F0230B7007219060116070471D
:1024300010B590F83C20012A4FF002022AD080F813
:102440003D20026842F6004C5368D2F808E0C4F21E
:10245000010C624503D14C6823F4700323430C68DC
:1024600023F070032343B2F1804F536007D044F24E
:102470000003C4F201039A4201D0624504D1896885
:102480002EF08003194391600121002280F83D1055
:1024900080F83C20104610BD002804BF0120704782
:1024A000B0B5044690F83D0028B9002084F83C00FF
:1024B000204600F063F8022084F83D00206842F6D0
:1024C000004E0268C4F2010E704502D0B0F1804F98
:1024D00003D1A36822F070021A4343F6FF73C4F2DB
:1024E000010344F2004C9842C4F2010C06DCB0F146
:1024F000804F0BD0704509D00CE000BF604505D07F
:1025000044F20003C4F20103984203D1236922F488
:1025100040721A43A16922F080026368E5681143A2
:1025200070450160C562836218BF60451ED1616954
:10253000016301214161002084F8481084F83E10B5
:1025400084F83F1084F8401084F8411084F8421059
:1025500084F8431084F8441084F8451084F8461039
:1025600084F8471084F83D10B0BD00BF44F200016C
:10257000C4F201018842DCD1D9E7000081B00068D3
:1025800042F60041C4F20101884201D001B0704717
:1025900041F26000C4F20200016841F40061016090
:1025A000006800F400600090009801B070470000DF
:1025B00090F83D1001291CBF01207047022180F8CE
:1025C0003D100168B1F1804F0BD044F20000C4F21D
:1025D0000100814205D042F60040C4F20100814270
:1025E0000CD188680722C0F201020240062A4FF08F
:1025F000000008D0B2F5803F08BF7047086840F07F
:1026000001000860002070470146006841F2111384
:10261000026A1A4204D00122002081F83D2070474E
:10262000026A40F244431A42F5D1026822F00102E4
:1026300002600122002081F83D20704780B590F8AB
:102640003C20012A4FF0020200F0C28080F83D20B9
:10265000D0F800C08822DCF80830CFF6FE721A40AD
:10266000CCF808200B684F2B28DC1F2B44DD202BD7
:1026700045D0302B43D0402B40F0AC80D1F804E063
:10268000C968DCF82030DCF8202022F00102CCF808
:102690002020DCF8182022F0F00242EA011123F099
:1026A0000A0242EA0E02CCF81810CCF82020DCF81E
:1026B000081041F0470121F0300180E06F2B27DD49
:1026C000B3F5005F48D0B3F5805F7AD0702B40F04F
:1026D0008180D1E901E3C968DCF8082043EA0E03F0
:1026E00022F47F4243EA01211143CCF80810DCF8C0
:1026F000081041F0770162E00BB1102B6AD1DCF8D1
:10270000081021F07001194341F0070157E000BFA4
:10271000502B35D0602B5DD1D1F804E0C968DCF8CE
:102720002030DCF8202022F01002CCF82020DCF849
:10273000182022F4704242EA013123F0A00242EA5A
:102740000E12CCF81810CCF82020DCF8081041F05C
:10275000670121F0100132E0D1E901E3C968DCF83A
:10276000082043EA0E0322F47F4243EA0121114389
:10277000CCF80810DCF8081041F480411FE000BFDD
:10278000D1F804E0C968DCF82030DCF8202022F021
:102790000102CCF82020DCF8182022F0F00242EAF6
:1027A000011123F00A0242EA0E02CCF81810CCF80C
:1027B0002020DCF8081041F0570121F02001CCF86E
:1027C00008100022012180F83D10002180F83C1003
:1027D000104680BD0122F5E710B5C8B10446C06FB0
:1027E00028B9002084F87800204600F025F824203D
:1027F000E0672068616A026822F00102026011B19C
:10280000204600F075FA204600F09AFB012801D11D
:10281000012010BD2168486820F490404860886815
:1028200020F02A008860086840F0010220460A6013
:10283000BDE8104000F0D0BAF0B59BB0044601A846
:1028400004305021FDF78AFD206844F20041C4F2B3
:102850000001884202D01BB0F0BD00BF022501A8D4
:102860000195FEF7D9FE002818BFFDF781FF41F260
:102870004C00C4F20200C16816AC41F40031C160E2
:10288000C168002601F400311691169901680327EA
:1028900041F0010101600068214600F0010016903E
:1028A00016980420CDE9160507201A904FF09040A5
:1028B00018961997FEF7BAFC4FF4004016A9E1C12B
:1028C0004FF0904021461A97FEF7B0FC1BB0F0BDC8
:1028D000FEE70000B0B586B041F280000021C2F2F0
:1028E0000000C5F2040100240425C0E90014012100
:1028F0004FF4C8624FF48063C0E90244C0E9044564
:102900000483C16180F82040C0E90A2380F83010B8
:10291000446380F83840FEF7EBF8002818BFFDF755
:1029200027FF4020C1F6201000900620CDE90104C9
:102930007F20CDE9030541F28000C2F20000694624
:102940000594FDF71BFF002818BFFDF711FF06B027
:10295000B0BD000080B582B041F24800C4F2020070
:102960000168002241F0010101600068002100F0CF
:102970000100019001980B20FEF7B0FD0B2002B082
:10298000BDE88040FEF796BD70B586B0002541F2E7
:102990004C000595C4F20200016840F2004441F089
:1029A000040101600168C4F6000401F00401009113
:1029B00000990168002241F00101016001680826C8
:1029C00001F0010100910099016841F002010160EC
:1029D0000068082100F00200009000982046FEF7F1
:1029E000FFFC0120CDE9020501A9204601960495CE
:1029F000FEF71CFC06B070BD80B588B041F22C100B
:102A000042F600420021C2F20000C4F201021F237C
:102A10004FF0090C0791CDE90511C0E90023C0E989
:102A2000021CC0E904118161FFF736FD002818BFC0
:102A3000FDF79EFE4FF48050049041F22C10C2F23C
:102A4000000004A9FFF7FAFD002818BFFDF790FE6B
:102A5000202001900020CDE9020041F22C10C2F2AA
:102A6000000001A9FFF7E4FC002818BFFDF780FE75
:102A700008B080BD80B541F2781044F20041C2F246
:102A80000000C4F2000100234FF00C0C4FF4E132BF
:102A900080E80E00C0E90333C0E905C3C0E907338D
:102AA0004362FFF799FE002808BF80BDBDE8804063
:102AB000FDF75EBEFEE70000FEE700007047000085
:102AC000F0B581B041F20007C4F20207FA680D4682
:102AD0009107044614D0F868216800F0030088428A
:102AE0004FF0010040F09F80002900F09C80F868C2
:102AF0006168C0F302100130884232D134E000BF77
:102B0000206803280CD0022816D0012829D1396862
:102B1000012211F0020182EA510116D120E000BF2A
:102B20003968890310D43968012211F4802182EABE
:102B300091410AD114E000BF3968012211F480618B
:102B400082EA912101D10BE00021FA6863686FF0FD
:102B50000F0622F0730206EB03131A431043F860CA
:102B600011B1012001B0F0BD386820F080603860FC
:102B7000FEF73CFC064600BF3868000106D5FEF7AC
:102B800035FC801B0228F7D944E000BF012D0DD091
:102B9000F5B9386948F2FF01C0F2FF710840D4E985
:102BA000021240EA012040EAC26022E048F2FF013E
:102BB0003869CFF6FF112269002301F1B461CFF625
:102BC000E0730840A16803EA0252A2F500120DE08A
:102BD000386948F2FF016269CFF6FF114FF07E437A
:102BE0000840A16803EA026202F17E4240EA012045
:102BF00010433861386840F080603860FEF7F6FBBB
:102C0000054600BF3868000108D4FEF7EFFB401B03
:102C10000228F7D9032001B0F0BD00BFA0693969CF
:102C200008433861002001B0F0BD0000704700008B
:102C3000FEF7E2BB10B596B005A804302421FDF7DD
:102C40008DFB00244FF400700494CDE90244CDE9DB
:102C50000044FEF77FFC28B1EFF3108072B600BF8E
:102C6000FEE700BFFEF7C4FC41F29000C4F2020090
:102C7000016821F0180101601420602105900120F5
:102C80000D9102210790CDE90B04CDE90F101190B1
:102C9000102012900720CDE9130105A81591FEF729
:102CA000C9FF28B1EFF3108072B600BFFEE700BF86
:102CB0000F200090032001900020CDE90200049035
:102CC00068460121FEF7EAFD20B1EFF3108072B6ED
:102CD000FEE700BFFEF796FC16B010BD4EF688501A
:102CE000CEF20000016841F47001016070470000FD
:102CF00080B5416A0A070DD4CA0716D18A071FD4C6
:102D00004A0728D4CA0631D48A063AD44A0658D586
:102D100042E000BF0268D0F834C0536823F4004397
:102D200043EA0C035360CA07E8D00268D0F828C011
:102D3000536823F4003343EA0C0353608A07DFD55A
:102D40000268D0F82CC0536823F4803343EA0C03A4
:102D500053604A07D6D50268D0F830C0536823F4D0
:102D6000802343EA0C035360CA06CDD50268D0F82D
:102D700038C0936823F4805343EA0C0393608A06B7
:102D8000C4D50268D0F83CC0936823F4005343EAEA
:102D90000C0393604A0614D50268D0F840C053680B
:102DA000BCF5801F23F4801343EA0C03536008D161
:102DB000D2F804C0D0F844E02CF4C00343EA0E0378
:102DC0005360090658BF80BD0168806C4A6822F4D0
:102DD00000221043486080BDB0B582B00446002098
:102DE000C4F88400FEF702FB216805460A68120752
:102DF00035D56FF07E4C20464FF4001100222B4653
:102E0000CDF800C000F0A8F940B300BF206850E83A
:102E1000000F216820F0800041E80002DAB120684C
:102E200050E8000F216820F0800041E8000292B1D4
:102E3000206850E8000F216820F0800041E800027F
:102E40004AB1206850E8000F216820F0800041E876
:102E50000002002ADAD12020E0675FE021680868DC
:102E6000400761D56FF07E4C20464FF48001002270
:102E70002B46CDF800C000F06FF9002854D000BFF9
:102E8000206850E8000F216820F4907041E80002AB
:102E9000E2B1206850E8000F216820F4907041E80A
:102EA00000029AB1206850E8000F216820F4907069
:102EB00041E8000252B1206850E8000F216820F478
:102EC000907041E80002002ADAD100BF206850E883
:102ED000020F216820F0010041E80202DAB1206807
:102EE00050E8020F216820F0010041E8020292B18F
:102EF000206850E8020F216820F0010041E802023A
:102F00004AB1206850E8020F216820F0010041E832
:102F10000202002ADAD12020C4F880000320002118
:102F200084F8781002B0B0BD2020E067C4F88000BB
:102F3000002020666066002184F8781002B0B0BDE1
:102F4000B0B5054605F108041ECC0068194341EAF6
:102F50000403D5F81CE0046846F6F311CEF6FF71C1
:102F60002140194341EA0E010160416848F2000C1A
:102F700021F4405111434160AA69C4F2000C60453C
:102F80001CBF296A0A43816821F43061114344F26D
:102F90000042C4F20002904281600FD0604515D01B
:102FA00043F60001C4F2010188424BD141F288018D
:102FB000C4F202010B6864A212E000BF41F2880172
:102FC000C4F2020109688B0806E000BF41F28801E3
:102FD000C4F2020109688B0A45F21812C0F6000219
:102FE00003F0030152F82130604542F20040C0F284
:102FF000F4002ED0BEF5004F12D1082B4FF0010186
:1030000000F29D80DFE803F0065C689B609B9B9B61
:10301000660000BFFEF780FD002840F05D8056E0AE
:10302000082B4FF0010100F28A80DFE803F0056B06
:1030300077886F8888887500FEF76EFD002840F05D
:103040006D8066E01023604542F20040C0F2F4005B
:10305000D0D1082B4FF0010100F27180DFE803F0BE
:10306000066F126F0A6F6F6F100000BFFEF754FDFE
:1030700040B902E0FEF77CFD20B900215FE000BF0F
:103080004FF400406A6802EB420188424FF00101B0
:1030900055D31303984252D8010E000210EB520090
:1030A00041F100010023FDF7E1F84FF60052A0F5D1
:1030B0004071C0F20F0291423BD301213FE000BFBB
:1030C000FEF740FD40B902E0FEF752FD20B90021B5
:1030D00035E000BF4FF4004069684A0802EB400049
:1030E000B0FBF1F04FF6EF72A0F11001914207D85A
:1030F0004FF6F0710140C0F34200084419E000BFF0
:1031000001211CE0FEF71EFD40B902E0FEF730FD94
:1031100020B9002113E000BF4FF4004069684FF66A
:10312000EF7200EB5100B0FBF1F0A0F11001914201
:1031300004D82968C860002101E000BF01210022F5
:103140000846AA66EA66B0BD01000000040000005F
:1031500002000000080000002DE9F041044600686C
:103160001546C2690E461140891BB1FA81F1490921
:10317000A94227D1DDF81880B8F1000F26D018F148
:10318000010129D1C1693140891BB1FA81F1490995
:10319000A94217D1C1693140891BB1FA81F14909AE
:1031A000A9420FD1C1693140891BB1FA81F14909A6
:1031B000A94207D1C1693140891BB1FA81F149099E
:1031C000A942DFD00020BDE8F08100BFFEF70EF974
:1031D0000320BDE8F08100BF1F4607E0C069304012
:1031E000801BB0FA80F04009A842EBD1FEF7FEF850
:1031F000C01B404500F28E80206801684907EDD56C
:10320000C169090700F18A80C1690905E6D54FF453
:1032100000610162206850E8000F216820F490707E
:1032200041E80002BAB3206850E8000F216820F49A
:10323000907041E8000272B3206850E8000F2168E6
:1032400020F4907041E800022AB3206850E8000F93
:10325000216820F4907041E80002002ADAD11AE0D7
:10326000206850E8020F216820F0010041E80202C6
:10327000DAB1206850E8020F216820F0010041E82F
:10328000020292B1206850E8020F216820F001008C
:1032900041E802024AB1206850E8020F216820F09C
:1032A000010041E80202002ADAD1206E012824D16F
:1032B000206850E8000F216820F0100041E800026B
:1032C000DAB1206850E8000F216820F0100041E8D2
:1032D000000292B1206850E8000F216820F0100031
:1032E00041E800024AB1206850E8000F216820F050
:1032F000100041E80002002ADAD120200021C4F8A1
:1033000080002166A166C4F88400032084F8781048
:10331000BDE8F0810320BDE8F08100BF0821016213
:10332000206850E8000F216820F4907041E8000206
:10333000BAB3206850E8000F216820F4907041E88B
:10334000000272B3206850E8000F216820F49070EA
:1033500041E800022AB3206850E8000F216820F4F9
:10336000907041E80002002ADAD11AE0206850E8A3
:10337000020F216820F0010041E80202DAB1206862
:1033800050E8020F216820F0010041E8020292B1EA
:10339000206850E8020F216820F0010041E8020295
:1033A0004AB1206850E8020F216820F0010041E88E
:1033B0000202002ADAD1206E012824D1206850E8C8
:1033C000000F216820F0100041E80002DAB1206807
:1033D00050E8000F216820F0100041E8000292B18F
:1033E000206850E8000F216820F0100041E800023A
:1033F0004AB1206850E8000F216820F0100041E831
:103400000002002ADAD12020C4F880000020082120
:103410002066A066C4F8841084F878000120BDE816
:10342000F0810000FEE700002DE9F04F81B0B0F818
:1034300000901E4690460746012A0C463FD1B9F13E
:10344000000F3CD0A9F10101201D032909F003015F
:103450001ED329F0030200BF90ED000A90ED021A7E
:1034600090ED042AB1EE400A90ED063A80ED000A94
:10347000B1EE410A80ED020AB1EE420A80ED040A83
:10348000B1EE430A80ED060A043A00F12000E3D1D0
:10349000A9B190ED000A0129B1EE400A80ED000AC1
:1034A0000DD090ED020A0229B1EE400A80ED020A29
:1034B00005D090ED040AB1EE400A80ED040AB9F19E
:1034C000FF0F0DDDB9F5806F14DBB9F5805F2BD0F0
:1034D000B9F5006F16D0B9F5806F1FD022E000BF9C
:1034E000B9F13F0F14DCB9F1100F17D0B9F1200F6B
:1034F00008D017E0B9F5807F04D0B9F5007F13D06C
:1035000010E000BF3846214600F01EFAAEB9C3E015
:10351000B9F1400F08D0B9F1800F03D138462146E8
:1035200000F034F94EB9B7E07A68204649460123E5
:1035300000F018FD002E00F0AF80B989002900F0DE
:10354000AB8001390122D7F808E002EB51020629CD
:1035500002F0030C02D24FF0000A52E022F0030BFB
:103560000EF10E074FF0000A37F80C1C37F80E6CFE
:1035700021F0030126F003066258A5596318A251F1
:1035800065505968A0194268416037F80A0C37F84D
:10359000081C5A6020F0030021F0030123586558ED
:1035A0002218661825506350706851685060716029
:1035B00037F8060C37F8041C20F0030021F0030153
:1035C0002358655822186618255063507068516852
:1035D0005060716037F8020C37F8101B20F00300C0
:1035E00021F00301235865582218661825506350AE
:1035F00070685168BBF1040B0AF1080A50607160F1
:10360000B2D1BCF1000F47D04AF001013EF81A00D8
:103610003EF8111020F0030021F0030123586558F3
:10362000221866182550635070685168BCF1010F6C
:103630005060716030D0042000EB4A003EF800106A
:1036400040F002003EF8000021F0030120F00300EA
:1036500063582558621826186550235070685168C1
:10366000BCF1020F5060716016D0082000EB4A00D8
:103670003EF8001040F002003EF8000021F0030187
:1036800020F003006358275862182618675023500B
:103690007068516850607160B8F1010F6FD1B9F175
:1036A000000F6CD000EE109AB8EE400AB7EE001A88
:1036B00081EE000AA9F10100032809F0030035D3C7
:1036C00029F0030194ED001A94ED012A94ED023AD9
:1036D00020EE011A94ED034A84ED001A22EE401AFE
:1036E00084ED011A20EE031A94ED042A84ED021AE7
:1036F00024EE401A84ED031A20EE021A94ED052AF6
:1037000084ED041A22EE401A94ED062A84ED051A7F
:1037100020EE021A94ED072A84ED061A22EE401AD2
:1037200084ED071A043904F12004CBD138B394EDA9
:10373000001A94ED012A20EE011A22EE402A0128F7
:1037400084ED001A84ED012A19D094ED021A94ED4B
:10375000032A20EE011A22EE402A022884ED021AE2
:1037600084ED032A0BD094ED041A94ED052A20EE83
:10377000011A22EE400A84ED041A84ED050A01B014
:1037800000F000B830BCBDE8C08F00002DE9F04F5C
:1037900081B02DED028B82B00246038801925268FF
:1037A000084601EB830A082B4FEA5309C0F0B680A4
:1037B0004FEA89016FF00E0700F1080401EB830165
:1037C00000EB890C07EA430E04EB010B002600BF57
:1037D00087190AEB060104EB060897ED002A91ED24
:1037E000004A18ED010A91ED015A0CEB06030BEBB0
:1037F000060598ED001A91ED026A72EE045A93EDF7
:10380000007A55ED022AC7ED005A70EE055AD3ED45
:10381000010A55ED013A48ED015A71EE065A97ED4D
:10382000033AD3ED021AD5ED004AC8ED005AD1EDA6
:10383000035A32EE442A33EE258A37EE224AD3ED7C
:10384000036AD5ED017A87ED038A83ED004A30EEF5
:10385000A34A83ED014A31EEA44A83ED024A36EED3
:10386000A74A83ED034A931930EE450A31EE461A12
:1038700033EEE05A34EEE16AD3ED000AD3ED011ADB
:1038800032EEC74A62EE202A60EE213A20EE200A8C
:1038900022EE212A30EE420A81ED010A24EE210AAD
:1038A00025EE212A25EE205A72EEA32A24EE204A84
:1038B00030EE450AC1ED002A05ED020A34EE020A97
:1038C00005ED010A93ED020A93ED032A33EE653A02
:1038D00021EE004A23EE025A23EE003A21EE021AAC
:1038E00037EEE67A33EE411A81ED031A26EE021A1C
:1038F00027EE022A27EE003A26EE000A103634EEB2
:10390000054A31EE431A30EE020AB64581ED024A0D
:1039100085ED001A85ED010A7FF45AAF494602236E
:1039200000F020FB0198494642685046022302B04D
:10393000BDEC028B01B000F002B800F013BB30BC4C
:10394000BDE8C04FFFF7F9BF2DE9F04F81B02DED75
:10395000108B8AB0078891ED000A7B0801EB830B7E
:103960000BEB830891ED011A98ED002A98ED013ACE
:1039700008EB830A30EE024A30EE420A31EE032AA7
:1039800031EE431A9BED013A9BED005A02904468D8
:10399000B8089AED017ADAED000A6FF001020190A1
:1039A00030EE036A71EE451A74EE452A72EE433A20
:1039B00030EE430A31EE051A34EE054A32EE032AA0
:1039C00002EB970036EE476A71EEA01A72EEE02A1B
:1039D00073EEC73A30EE070A31EE601A34EE204A31
:1039E00032EE072A450881ED004A81ED012A8BED70
:1039F000006ACBED011AC8ED002AC8ED013A8AED44
:103A0000000A8AED011ACDE9078A0591CDE903B4D0
:103A100000F04C816FF0030000EB031703EB430051
:103A20006FF0070202EB800602EBC30402EB830E89
:103A300000220021002300BF0991069207980599F2
:103A400000EB030808980BEB030C00EB030AC81803
:103A500090ED026A90ED037AD8ED020AD8ED031AD0
:103A60009CED020A9CED031A36EE204A37EE215AED
:103A70009AED022A9AED033A74EE002A75EE013AA5
:103A800072EE822A73EE833A01EB060B01EB0E0213
:103A9000C0ED022AC0ED033A081936EE606AD2ED95
:103AA000010ADBED012A01EB0709D0ED013A37EEFF
:103AB000617A70EEA21AD9ED004A71EEA35A75EE42
:103AC000A45AD2ED006ADBED007A90ED008A19ED80
:103AD000019AC2ED015A90ED00AA76EEA75A19EDAF
:103AE00001BA35EE8AAA04993AEE0BAA82ED00AA31
:103AF000CA1836EE01AA37EE40BA92ED02CA92ED2C
:103B000003DA3AEE43AA3BEE02BA2AEE0CEA2BEEB7
:103B10000DFA2BEE0CBA2AEE0DAA70EEE20A3BEE7D
:103B20004AAA76EEE76A70EEC82A73EEE47A8CED64
:103B300003AA72EE892A36EEA7AA069A22EE8DBA59
:103B40002AEE0DDA2AEE0CAA62EE8C2A3EEE0FEA7D
:103B50003BEE4AAA72EE8D2A8CED02EAC0ED002AF5
:103B600080ED01AA881834EE404A35EE415AD0ED76
:103B7000042A90ED05AA34EE424A35EE435A24EE6B
:103B800022BA25EE0ACA25EE225A24EE0A4A35EE5A
:103B9000444A88ED034A31EEE34A35EEC85A34EE22
:103BA000644A35EE495A64EE621A65EE222A25EE21
:103BB0000A5A24EE0A4A09983BEE0CBA31EEC55A6D
:103BC00034EE624A88ED02BA8BED004A8BED015A61
:103BD000084490ED064A90ED075A36EE411A37EE4A
:103BE000000A31EE031A30EE420A21EE042A20EEDA
:103BF000053A20EE040A21EE051A30EE410A39EEAC
:103C0000481A099932EE032A8AED030A37EEE60ACA
:103C100031EE601ADDF81C80DDF80CB08AED022A66
:103C2000DDF820A021EE052A20EE053A20EE040A58
:103C300021EE041A32EE400A31EE031A013D03F17F
:103C40000803A7F10807A6F10806A4F1080401F18A
:103C5000180102F11002AEF1080E09ED011A89ED0A
:103C6000000A7FF4E9AE0BEB030000F108070697AA
:103C7000DDF810E008EB03040EEB020B0EEB01087D
:103C80000BF11001099105990AEB030608F1180CD4
:103C9000CA180EEB030A069B04F1080506F1080991
:103CA00002F10807E6460AF1080C16E001F10807E0
:103CB0000A4604F11000214604F1080C099004F1B1
:103CC000180E0AF1080908F108050BF10803584617
:103CD0004446564688468B468A4697ED000A95ED3F
:103CE000001A93ED007A30EE012AD9ED000A92ED28
:103CF000033A94ED034A72EE472A32EE072A32EE77
:103D0000202A30EE410A33EE041A33EE443A90EDA5
:103D1000034A96ED035A87ED002A90ED032A30EE10
:103D2000046A71EE443A30EE440A96ED034A31EEED
:103D3000021A31EE041A82ED031A73EE471A9CED53
:103D4000001A9AED032A36EE456A71EEA01A73EE58
:103D5000C53A30EE050A26EE014A21EE825A21EEDE
:103D6000811A26EE022A34EE054A31EE421A83ED1C
:103D7000004A80ED031A09989BED052A90ED001A80
:103D800072EEE02A22EE814A23EE825A23EE811A55
:103D900022EE822A34EE054A31EE421A85ED004ABF
:103DA00084ED031A33EE073A9EED001A98ED072AC8
:103DB00033EE603A019D20EE014A23EE025A23EED3
:103DC000011A20EE020A0598049A34EE052A31EE13
:103DD000400A2946042389ED002A86ED030A00F0F3
:103DE000C1F8029C039862682946042300F0BAF8DF
:103DF000626807982946042300F0B4F862680898BE
:103E0000294604230AB000F005B801B000F008B854
:103E100000F0A8B8BDEC088BBDEC08CBFFF7F5BFF0
:103E200030BCBDE8C04FFFF7F3BF0000002A08BF59
:103E30007047A0F10803081F93ED020A93ED031ADF
:103E400020EE000A21EE011A30EE010A0833B1EE2D
:103E5000C00A80ED010A0430013AEDD1704700003C
:103E600070B590ED000A4C1E0ED08E1E032E04F08D
:103E7000030E11D24FF0000CBEF1000F46D182EDBF
:103E8000000AC3F800C070BD4FF0000C82ED000ABC
:103E9000C3F800C070BD00BF24F003054FF0000C54
:103EA000002600BF90ED011A90ED022A90ED033A32
:103EB000B4EE410A90ED044AF1EE10FABCBFB0EE48
:103EC000410A06F1010CB4EE420AF1EE10FABCBF51
:103ED000B0EE420A06F1020CB4EE430AF1EE10FA1B
:103EE000BCBFB0EE430A06F1030CB4EE440A04363C
:103EF000F1EE10FABCBFB0EE440AB446B54200F190
:103F00001000CFD1A41BBEF1000FB8D090ED011A64
:103F1000091BB4EE410AF1EE10FABCBFB0EE410A43
:103F20008C46BEF1010FAAD090ED021AB4EE410A00
:103F3000F1EE10FABCBFB0EE410A01F1010CBEF186
:103F4000020F9CD090ED031AB4EE410AF1EE10FA84
:103F5000BCBFB0EE410A01F1020C82ED000AC3F8C9
:103F600000C070BD2DE9F04F81B02DED108BA0B0D9
:103F7000DFED05CACDE90332021D0C300E46019279
:103F800000901C9102E000BFF304353FF30826F0D7
:103F900007001B90D8000E90A0EBD600C0001A902E
:103FA00003EB43000201C70003EB83004FEA031E4B
:103FB000C400384602935F01019BF5004FF0000BEF
:103FC000CDE91D65CDE90B421F9700BF1F9903EB9B
:103FD00004085F181B9903EB0E0603EB01091A99FD
:103FE0001A4403EB000A03EB010C13ED011A17ED61
:103FF000012A19ED013A18ED014A16ED017A52ED48
:10400000010A5AED011A5CED012A31EE025A33EE33
:10401000046A77EE203A71EEA24A75EE235A76EEE4
:10402000246A75EEA67A43ED017A75EEE65AD9ED6B
:10403000007A98ED008A9AED00BA9CED00CAD3EDA3
:10404000006A47ED015AD7ED005A96ED009A92EDBD
:1040500000AA37EE88EA7BEE0C8A36EEA5DA39EE56
:104060000AFA35EE635A36EE646A7EEE684A7DEEF1
:104070000F9A7DEE4F3A35EE24DA35EE645A7EEE35
:1040800028AA06ED01DA33EEC6DA02ED015A36EE61
:10409000235A31EE421A33EE442A37EE603A31EEBB
:1040A000E24A37EEC86A7BEE4C0A79EEAABA79EE9C
:1040B000EA9A72EE441A32EE042A36EE604A36EE7E
:1040C000206AC3ED00BAC7ED009A86ED00DA1D9EA6
:1040D00082ED005A36EEE55A39EE4A7A61EEAC1AB4
:1040E00022EE2C2A24EE2C4A26EE2C6ADDE91E57FD
:1040F0001C9971EE210A73EE022A75EE043A77EEEE
:10410000064A31EE611A33EE422A35EE443A37EE72
:10411000464A70EEA45A70EEE40ADDE90B4231EE35
:10412000045A31EE441AB34449ED015A73EEE25A8F
:104130004CED010A72EEA30A08ED015A33EE425A21
:104140000AED011A32EE031A8B452B44C9ED005AD1
:10415000CCED000A88ED005A8AED001AFFF436AF64
:10416000402EC0F0B7810399079088B2029906905B
:104170000846CDF834E0022998BF0220C1EBC10106
:10418000DDF80080CE0000254FF0010E059000BF45
:104190000698049B054403EBC50191ED000ADDF888
:1041A0001CC08DED1B0A91ED010A03EB05118DED8D
:1041B0001A0A91ED000ADDE90B408DED190A91ED27
:1041C000010A05EB450103EBC1028DED180A92EDE2
:1041D000000A03EB01118DED170A92ED010A03EBC2
:1041E00045128DED160A92ED000A0A958DED150A1D
:1041F00092ED010A05EB850203EBC2028DED140A74
:1042000092ED000ACDE9088E8DED130A92ED010AB8
:104210008DED120A91ED000A8DED110A91ED010A62
:10422000C5EBC50103EBC1018DED100A91ED000A4C
:10423000D1ED016A8DED0F0A0E9908EB070A08EB24
:1042400001090D9908EB040308EB010708EB000BCB
:1042500008EB0C023546464458ED017A1AED018A06
:1042600019ED019A13ED01AA17ED01DA1BED01EA30
:1042700012ED01FA56ED018A37EE88BA39EE0ACA14
:104280007DEE0E9A7FEE28AA7BEE29BAF0EE6C3A0C
:104290007CEE2ACA7BEEACDA48ED01DA7BEEECBAB2
:1042A000D8ED00CADAED00DAD9ED00EAD3ED00FA74
:1042B00097ED000A9BED001A92ED002A96ED003A68
:1042C0003CEEAD4A3EEEAF5A30EE016A32EE037A72
:1042D00074EE060A75EE071ADDED154ADDED145A87
:1042E00070EEA12A70EEE10AC8ED002A64EEAB1A66
:1042F00065EEA02A71EEA21A64EEA00A65EEAB2A62
:1043000070EEE20A4AED011ACAED000A7BEE690A74
:104310007CEE6A1A34EE464A35EE475A9DED19CACC
:10432000DDED189A30EE856A34EE617A6CEE062A7D
:1043300029EE87BA2CEE077A29EE866A30EEC55A46
:1043400031EE844ADDED110ADDED101A37EE466AD2
:1043500087ED006A20EE856A21EE847A20EE844A99
:1043600021EE855A37EE066A34EE454A39EE4A5A4E
:104370003FEE687A7EEEEF1A30EE410A32EE431AD3
:104380007BEE222A35EE472A35EE073A31EEC15A46
:1043900031EE811A47ED012A0BED016A8BED004ADF
:1043A00037EEC84A3DEE4E6A7CEEED0A22EE232A35
:1043B00023EE233A25EE235A21EE231AF0EE63CAA8
:1043C00034EE027A76EE031A70EE852A70EE017AE8
:1043D000DDED1B3A9DED1ACA37EE278A32EEE19ADF
:1043E00023EE88AA2CEE09BA23EE899ADDED0F3A66
:1043F00037EE677A71EEA21A63EE872A66EEA17A2B
:1044000063EEA11A26EE877A2CEE088A31EEC77A7F
:1044100034EE422A36EE433A30EEC54A30EE410AD7
:10442000DDED130ADDED121A39EE488A32EE001A7C
:1044300034EE435A89ED008A86ED007A20EE816AD7
:1044400021EE857A20EE855A21EE811A35EE411A49
:1044500083ED001A33EE041A9DED174A9DED165AAE
:1044600032EE400A24EE002A25EE013A24EE011A2B
:1044700025EE000A3AEE0BAA72EEA72A36EE076A7C
:1044800032EE032A31EE400A09ED01AA46ED012A77
:1044900003ED016A02ED012A82ED000A1D9A1C99C2
:1044A00096441E9A1F9F2E468E459044FFF4C4AE3C
:1044B000DDF824E00598DDF820800EF1010E0A9D5C
:1044C000864508F108087FF463AE0398029EC00099
:1044D00003905BE520B000F003B801B000F006B82F
:1044E000BDEC088BBDEC08CBFFF7F7BF30BCBDE8D7
:1044F000C08F00000000000088B0FCF78BFFFEF7C3
:1045000099FBFEF741FAFEF725FAFEF7E3F9FEF70D
:1045100073FAFEF7AFFA42F2002040F27005C2F2E1
:104520000000C2F20005043040F2800A40F200446C
:1045300040F20C06049005F108009FEDA58B9FED5D
:10454000A69BC2F2000AC4F600040027C2F20006CD
:10455000039005F10C00029037E000BF41F2002407
:1045600045F20810C2F20004C0F600002146002205
:104570000123FEF759FF40F20C06C2F20006326832
:1045800042F200212046C2F20001FFF74FFC3068E2
:10459000DDE90232411E0498FFF762FC40F270052B
:1045A0003068C2F20005E9684FF44842B2FBF0F00F
:1045B0000131484300EE100AB8EE400A40F20044D0
:1045C00085ED010AC4F60004002741F22C10C2F266
:1045D0000000FDF7EDFF41F28000C2F200005146FD
:1045E0004FF48052FCF7ECFB204608210122FCF737
:1045F000F7FE28780128F7D131684FF0000800292C
:104600002F70ABD0481E032804D2002711F00305F9
:104610007BD1A3E741F20020C2F2000000F11C07A9
:1046200021F00300AAF110080191404200210590F9
:1046300058F8100F07916FF31F3000F05DFA54EC3B
:10464000186B32462346069600F06AFA5BEC19AB0B
:1046500052465B4600F0F6F800F0C2F847F81C0C32
:10466000002047F8180CD8E90109D8F80C506FF36E
:104670001F3000F041FA32462346264600F050FA39
:1046800052465B4600F0DEF800F0AAF847F8140C3A
:1046900000206FF31F3947F8100C484600F02CFA41
:1046A000069C3346224600F03BFA52465B4600F039
:1046B000C9F800F095F86FF31F3547F80C0C4FF070
:1046C0000009284647F8089C00F016FA22463346AF
:1046D00000F026FA52465B4600F0B4F800F080F88D
:1046E000079947F8040C0598043947F8209B88423D
:1046F0009ED14F4240F2800A01994FF00008C2F269
:10470000000A11F003053FF429AF5AF827006FF3B0
:104710001F3000F0F1F953EC189B4A46079300F064
:10472000FFF95BEC194B22465B4600F08BF800F07A
:1047300057F841F20022C2F2000202EBC701012D3C
:1047400042F83700C1F804803FF408AF40F280001F
:104750007E1CC2F2000050F826006FF31F3000F0FC
:10476000CBF9079B4A4600F0DBF922465B4600F096
:1047700069F800F035F841F20022C2F2000240F27E
:10478000800A02EBC601C2F2000A022D42F836008E
:10479000C1F804803FF4E2AEBD1C5AF825006FF367
:1047A0001F3000F0A9F9079B4A4600F0B9F92246EC
:1047B0005B4600F047F800F013F841F20022C2F225
:1047C000000202EBC50142F83500C1F80480C5E6DD
:1047D0006666666666660A400000000000FEAF403E
:1047E00021F0004201F00043A2F16052B2F5801FB7
:1047F00028BFD2F17F6C0BD95FEA001C43EAC202EA
:1048000042EB507018BF704728BF20F0010070477E
:10481000B2F5801FBCBF184670474FEA410C1CF52B
:10482000001F02D2084600F086BA70B500F022FAE6
:1048300000000089FFF7F6BF4FF00040A0F58000B0
:10484000704700002DE9C04130B4DFF8A4C23CEA53
:10485000111418BF3CEA131400F0ED801CEA111487
:1048600081EA030544EAD57418BF1CEA131500F069
:10487000C880A4EB050404F17F7404F500344FF004
:10488000004545EAC12145EAC32341EA505143EAC4
:1048900052534FEAC0204FEAC222994208BF9042C9
:1048A00000F09D804FEA13650FF24416765D4FEAE3
:1048B000134506FB05F7C7F1807706FB07F74FEABC
:1048C000D737A7FB03687642A7FB06CEC8F580382A
:1048D00038BFA8F1010807FB08E6A6FB028C4FF0E1
:1048E000000EE6FB03CEDCF1000CCEF1004E38BF2B
:1048F000AEF1010EA6FB0C584FF00007E6FB0E8749
:10490000A1FB08C6A0FB07CE16EB0E064FF0000574
:1049100045F10005E1FB076515F1E04E7EBFA4F50A
:1049200080345FEA46066D4116F1800745F10005C7
:104930004FEA172747EA05674FEA15254FEA06664B
:10494000A6F1DE46B6F1805F20D9384605EBC4718A
:1049500024F0010C01EB0C11BCF1FE6F02D8F0BC8D
:10496000BDE8008124425CBF01F5801E9EEAC47F41
:1049700002D4F0BCBDE80081244200F13980A1F1ED
:10498000C041F0BCBDE8004100F0C2B94FEAD02000
:1049900040EA41504FEAD1214FEAD22242EA435243
:1049A0004FEAD323A7FB028607FB036605FB0266DB
:1049B0001EEA0E0F58BFA6EB0056B6EB00564FEAA4
:1049C000520E4EEAC37E18EB0E0E56EB530EBCD5BC
:1049D00018EB02085E417F1C55F10005B5E74FF466
:1049E00080154FF000074FF000064FF00008ACE7CD
:1049F00001F1C04101F000414FF00000F0BCBDE802
:104A000000810CEA131511EA0C1F00D00CE013EA28
:104A10000C1F00F026804FF0000081EA030101F036
:104A20000041F0BCBDE80081F0BCBDE8004181EA76
:104A3000030100F06DB9F0BCBDE8004170B500F0B5
:104A400019F900BF097EFC3E00F007B84FF00000E6
:104A500081EA030101F00041704781EA030100F09F
:104A600057B9F0BCBDE8004122494FF00000704743
:104A7000FFFDFBF9F7F5F4F2F0EEEDEBE9E8E6E423
:104A8000E3E1E0DEDDDBDAD8D7D5D4D3D1D0CFCDAA
:104A9000CCCBCAC8C7C6C5C4C2C1C0BFBEBDBCBBE3
:104AA000BAB9B8B7B6B5B4B3B2B1B0AFAEADACABDE
:104AB000AAA9A8A8A7A6A5A4A3A3A2A1A09F9F9EB8
:104AC0009D9C9C9B9A99999897979695959493936A
:104AD000929191908F8F8E8E8D8C8C8B8B8A898901
:104AE0008888878786858584848383828281818084
:104AF0000000FF070000F87FB0FA80F310FA03F11E
:104B00000AD0C3F11D0303F580634FEA03524FEA55
:104B1000415002EBD12170474FF000007047000078
:104B200070B5DFF848C11CEA111E1EBF1CEA131540
:104B30009EEA0C0F95EA0C0F00F06F8081EA0304E7
:104B40004EEAD47EAE4421EA4C1123EA4C1341F4E0
:104B5000801143F48013AEF17F7EA1FB024CA0FBD9
:104B60000365361955EB0C05A1FB034C4CF1000312
:104B7000A0FB021C16EB0C06654153F10003094231
:104B800018BF46F0010613F4007F0BD14FEA033142
:104B90004FEA053041EA155140EA165034036FF0F0
:104BA00003020AE04FEAC3214FEAC52041EA55510A
:104BB00040EA5650F4026FF0020202EB2E4201EB83
:104BC000025585EACE710AD05FEA440C18BF24F082
:104BD000004450F1000041F1000120EAD47040F29D
:104BE000FE7C624500D270BDA84214BF4FF08044E5
:104BF0004FF04044002E08BF0024BEF1806FA8BFD4
:104C0000A1F1C041BDE8704080F2828001F1C04155
:104C100001F000414FF0000070470CEA13159EEAC6
:104C20000C0F18BF95EA0C0F06D081EA030E4FF067
:104C300000000EF0004170BD00F01CF88900013E3C
:104C400000F007B800F009B84FEA430C5FEA5C5C7B
:104C500008D081EA030100F05BB84FEA410C5FEA3B
:104C60005C5CF6D102494FF0000070470000FF077E
:104C70000000F87F0EF1020E2EF0030E5EF8046BBA
:104C8000364205D4012A43EB030515F5001F12D85F
:104C9000012841EB010C1CF5001F0CD80ED14FEA86
:104CA000D17C0CEB4C0C0CF1020C15F5001F08BF6D
:104CB0004CEBD37C04E04FF0080C01E04FEAD37CCE
:104CC0000CEB4C0526FA05F606F00706B6F1040CC7
:104CD00006D20EEB860CBDE870404CF0010C60472C
:104CE000DFE80CF0090B02024FF00041A1F50021B2
:104CF0004FF0000070BD19461046012851EB010429
:104D000018BFD4F5001484BF002001F0004170BD2D
:104D10000808A0F500114FEA31017047F1EE100AC2
:104D20004FF6FF71C0F2C03120EA010040F0407040
:104D3000E1EE100A7047FF2141EAD050C0057047EC
:104D4000000000000000000001020304060708093B
:104D50000000000001020304A0860100400D0300D2
:104D6000801A060000350C0040420F0080841E00AF
:104D700000093D0000127A000024F40000366E01A4
:104D80000048E801006CDC0208000002100000048A
:104D900018000006200000082800000A3000000C5F
:104DA0003800000E48004002500040045800400601
:104DB000600040086800400A7000400C7800400E17
:104DC000880080029000800498008006A00080087F
:104DD000A800800AB000800CB800800EC800C00295
:104DE000D000C004D800C006E000C008E800C00A37
:104DF000F000C00CF800C00E08010003100100050F
:104E000018010007200100092801000B3001000DE6
:104E10003801000F48014003500140055801400788
:104E2000600140096801400B7001400D7801400F9E
:104E3000880180039001800598018007A001800906
:104E4000A801800BB001800DB801800FC801C0031C
:104E5000D001C005D801C007E001C009E801C00BBE
:104E6000F001C00DF801C00F100208041802080676
:104E7000200208082802080A3002080C3802080E2E
:104E80005002480458024806600248086802480A6E
:104E90007002480C7802480E900288049802880636
:104EA000A0028808A802880AB002880CB802880EFE
:104EB000D002C804D802C806E002C808E802C80A3E
:104EC000F002C80CF802C80E100308051803080702
:104ED000200308092803080B3003080D3803080FC6
:104EE0005003480558034807600348096803480B06
:104EF0007003480D7803480F9003880598038807CE
:104F0000A0038809A803880BB003880DB803880F95
:104F1000D003C805D803C807E003C809E803C80BD5
:104F2000F003C80DF803C80F180410062004100879
:104F30002804100A3004100C3804100E58045006CF
:104F4000600450086804500A7004500C7804500E35
:104F500098049006A0049008A804900AB004900C4D
:104F6000B804900ED804D006E004D008E804D00AB3
:104F7000F004D00CF804D00E180510072005100915
:104F80002805100B3005100D3805100F5805500777
:104F9000600550096805500B7005500D7805500FDD
:104FA00098059007A0059009A805900BB005900DF5
:104FB000B805900FD805D007E005D009E805D00B5B
:104FC000F005D00DF805D00F200618082806180A9D
:104FD0003006180C3806180E600658086806580A7D
:104FE0007006580C7806580EA0069808A806980A6D
:104FF000B006980CB806980EE006D808E806D80A5D
:10500000F006D80CF806D80E200718092807180B48
:105010003007180D3807180F600758096807580B34
:105020007007580D7807580FA0079809A807980B24
:10503000B007980DB807980FE007D809E807D80B14
:10504000F007D80DF807D80F2808200A3008200CE0
:105050003808200E6808600A7008600C7808600E36
:10506000A808A00AB008A00CB808A00EE808E00A3A
:10507000F008E00CF808E00E2809200B3009200D9C
:105080003809200F6809600B7009600D7809600FFE
:10509000A809A00BB009A00DB809A00FE809E00B02
:1050A000F009E00DF809E00F300A280C380A280E44
:1050B000700A680C780A680EB00AA80CB80AA80E24
:1050C000F00AE80CF80AE80E300B280D380B280F10
:1050D000700B680D780B680FB00BA80DB80BA80FFC
:1050E000F00BE80DF80BE80F380C300E780C700E52
:1050F000B80CB00EF80CF00E380D300F780D700FA4
:10510000B80DB00FF80DF00F000200002851000894
:10511000884D0008C00100000000000004000000ED
:1051200002000000080000000000803F00000000B6
:1051300011FB7F3F900E493C43EC7F3FB00AC93CD6
:1051400098D37F3F2CC3163D0FB17F3F2FFB483DC7
:10515000AB847F3F742B7B3D6D4E7F3F05A9963D11
:10516000580E7F3F80B6AF3D6DC47E3F36BDC83D13
:10517000B0707E3F2EBCE13D24137E3F73B2FA3DFA
:10518000CCAB7D3F86CF093EAC3A7D3F8340163E97
:10519000C9BF7C3FB6AB223E283B7C3FA2102F3ECE
:1051A000CDAC7B3FCF6E3B3EBE147B3FC2C5473E7E
:1051B00002737A3F0115543E9DC7793F135C603EF0
:1051C0009812793F7F9A6C3EF853783FCCCF783E67
:1051D000C58B773FC07D823E07BA763F938E883E6F
:1051E000C6DE753F229A8E3E0BFA743F31A0943E84
:1051F000DD0B743F86A09A3E4714733FE59AA03EAC
:105200005213723F128FA63E0809713FD47CAC3E08
:1052100073F56F3FEF63B23E9ED86E3F2A44B83EAF
:1052200093B26D3F4A1DBE3E5E836C3F15EFC33E99
:105230000C4B6B3F53B9C93EA7096A3FCA7BCF3EAF
:105240003CBF683F4136D53ED86B673F80E8DA3EC9
:10525000880F663F4F92E03E59AA643F7533E63EA1
:105260005A3C633FBBCBEB3E98C5613FEA5AF13EE7
:105270002146603FCBE0F63E05BE5E3F275DFC3E2B
:10528000532D5D3FE4E7003F1A945B3F3D9C033F95
:105290006AF2593F824B063F5348583F9BF5083FFF
:1052A000E595563F6B9A0B3F31DB543FDA390E3FA1
:1052B0004918533FCDD3103F3D4D513F2A68133F0E
:1052C0001F7A4F3FD9F6153F029F4D3FC07F183FD1
:1052D000F8BB4B3FC6021B3F12D1493FD17F1D3F58
:1052E00065DE473FCBF61F3F03E4453F9967223F0A
:1052F00000E2433F25D2243F70D8413F5636273F36
:1053000067C73F3F1594293FF9AE3D3F4AEB2B3F1E
:105310003B8F3B3FDE3B2E3F4268393FBB85303FF2
:10532000233A373FC9C8323FF304353FF304353FD2
:10533000C9C8323F233A373FBB85303F4268393FC7
:10534000DE3B2E3F3B8F3B3F4AEB2B3FF9AE3D3FD1
:105350001594293F67C73F3F5636273F70D8413FD6
:1053600025D2243F00E2433F9967223F03E4453FB3
:10537000CBF61F3F65DE473FD17F1D3F12D1493F2E
:10538000C6021B3FF8BB4B3FC07F183F029F4D3FFB
:10539000D9F6153F1F7A4F3F2A68133F3D4D513FC5
:1053A000CDD3103F4918533FDA390E3F31DB543F1C
:1053B0006B9A0B3FE595563F9BF5083F5348583F86
:1053C000824B063F6AF2593F3D9C033F1A945B3F74
:1053D000E4E7003F532D5D3F275DFC3E05BE5E3F89
:1053E000CBE0F63E2146603FEA5AF13E98C5613F68
:1053F000BBCBEB3E5A3C633F7533E63E59AA643F54
:105400004F92E03E880F663F80E8DA3ED86B673FF8
:105410004136D53E3CBF683FCA7BCF3EA7096A3FB5
:1054200053B9C93E0C4B6B3F15EFC33E5E836C3FD7
:105430004A1DBE3E93B26D3F2A44B83E9ED86E3F91
:10544000EF63B23E73F56F3FD47CAC3E0809713F09
:10545000128FA63E5213723FE59AA03E4714733F47
:1054600086A09A3EDD0B743F31A0943E0BFA743F48
:10547000229A8E3EC6DE753F938E883E07BA763FEF
:10548000C07D823EC58B773FCCCF783EF853783FC6
:105490007F9A6C3E9812793F135C603E9DC7793FBE
:1054A0000115543E02737A3FC2C5473EBE147B3F8E
:1054B000CF6E3B3ECDAC7B3FA2102F3E283B7C3FC6
:1054C000B6AB223EC9BF7C3F8340163EAC3A7D3F1F
:1054D00086CF093ECCAB7D3F73B2FA3D24137E3FAD
:1054E0002EBCE13DB0707E3F36BDC83D6DC47E3FF1
:1054F00080B6AF3D580E7F3F05A9963D6D4E7F3F6C
:10550000742B7B3DAB847F3F2FFB483D0FB17F3F2A
:105510002CC3163D98D37F3FB00AC93C43EC7F3F74
:10552000900E493C11FB7F3F000000000000803FCF
:10553000900E49BC11FB7F3FB00AC9BC43EC7F3FD2
:105540002CC316BD98D37F3F2FFB48BD0FB17F3FC3
:10555000742B7BBDAB847F3F05A996BD6D4E7F3F0D
:1055600080B6AFBD580E7F3F36BDC8BD6DC47E3F0F
:105570002EBCE1BDB0707E3F73B2FABD24137E3FF6
:1055800086CF09BECCAB7D3F834016BEAC3A7D3F93
:10559000B6AB22BEC9BF7C3FA2102FBE283B7C3FCA
:1055A000CF6E3BBECDAC7B3FC2C547BEBE147B3F7A
:1055B000011554BE02737A3F135C60BE9DC7793FEC
:1055C0007F9A6CBE9812793FCCCF78BEF853783F63
:1055D000C07D82BEC58B773F938E88BE07BA763F6B
:1055E000229A8EBEC6DE753F31A094BE0BFA743F80
:1055F00086A09ABEDD0B743FE59AA0BE4714733FA8
:10560000128FA6BE5213723FD47CACBE0809713F04
:10561000EF63B2BE73F56F3F2A44B8BE9ED86E3FAB
:105620004A1DBEBE93B26D3F15EFC3BE5E836C3F95
:1056300053B9C9BE0C4B6B3FCA7BCFBEA7096A3FAB
:105640004136D5BE3CBF683F80E8DABED86B673FC5
:105650004F92E0BE880F663F7533E6BE59AA643F9D
:10566000BBCBEBBE5A3C633FEA5AF1BE98C5613FE3
:10567000CBE0F6BE2146603F275DFCBE05BE5E3F27
:10568000E4E700BF532D5D3F3D9C03BF1A945B3F91
:10569000824B06BF6AF2593F9BF508BF5348583FFB
:1056A0006B9A0BBFE595563FDA390EBF31DB543F9D
:1056B000CDD310BF4918533F2A6813BF3D4D513F0A
:1056C000D9F615BF1F7A4F3FC07F18BF029F4D3FCD
:1056D000C6021BBFF8BB4B3FD17F1DBF12D1493F54
:1056E000CBF61FBF65DE473F996722BF03E4453F06
:1056F00025D224BF00E2433F563627BF70D8413F32
:10570000159429BF67C73F3F4AEB2BBFF9AE3D3F1A
:10571000DE3B2EBF3B8F3B3FBB8530BF4268393FEE
:10572000C9C832BF233A373FF30435BFF304353FCE
:10573000233A37BFC9C8323F426839BFBB85303FC3
:105740003B8F3BBFDE3B2E3FF9AE3DBF4AEB2B3FCD
:1057500067C73FBF1594293F70D841BF5636273FD2
:1057600000E243BF25D2243F03E445BF9967223FAF
:1057700065DE47BFCBF61F3F12D149BFD17F1D3F2A
:10578000F8BB4BBFC6021B3F029F4DBFC07F183FF7
:105790001F7A4FBFD9F6153F3D4D51BF2A68133FC1
:1057A000491853BFCDD3103F31DB54BFDA390E3F18
:1057B000E59556BF6B9A0B3F534858BF9BF5083F82
:1057C0006AF259BF824B063F1A945BBF3D9C033F70
:1057D000532D5DBFE4E7003F05BE5EBF275DFC3E85
:1057E000214660BFCBE0F63E98C561BFEA5AF13E64
:1057F0005A3C63BFBBCBEB3E59AA64BF7533E63E50
:10580000880F66BF4F92E03ED86B67BF80E8DA3EF4
:105810003CBF68BF4136D53EA7096ABFCA7BCF3EB1
:105820000C4B6BBF53B9C93E5E836CBF15EFC33ED3
:1058300093B26DBF4A1DBE3E9ED86EBF2A44B83E8D
:1058400073F56FBFEF63B23E080971BFD47CAC3E05
:10585000521372BF128FA63E471473BFE59AA03E43
:10586000DD0B74BF86A09A3E0BFA74BF31A0943E44
:10587000C6DE75BF229A8E3E07BA76BF938E883EEB
:10588000C58B77BFC07D823EF85378BFCCCF783EC2
:10589000981279BF7F9A6C3E9DC779BF135C603EBA
:1058A00002737ABF0115543EBE147BBFC2C5473E8A
:1058B000CDAC7BBFCF6E3B3E283B7CBFA2102F3EC2
:1058C000C9BF7CBFB6AB223EAC3A7DBF8340163E1B
:1058D000CCAB7DBF86CF093E24137EBF73B2FA3DA9
:1058E000B0707EBF2EBCE13D6DC47EBF36BDC83DED
:1058F000580E7FBF80B6AF3D6D4E7FBF05A9963D68
:10590000AB847FBF742B7B3D0FB17FBF2FFB483D26
:1059100098D37FBF2CC3163D43EC7FBFB00AC93C70
:1059200011FB7FBF900E493C000080BF00000000CB
:1059300011FB7FBF900E49BC43EC7FBFB00AC9BCCE
:1059400098D37FBF2CC316BD0FB17FBF2FFB48BDBF
:10595000AB847FBF742B7BBD6D4E7FBF05A996BD09
:10596000580E7FBF80B6AFBD6DC47EBF36BDC8BD0B
:10597000B0707EBF2EBCE1BD24137EBF73B2FABDF2
:10598000CCAB7DBF86CF09BEAC3A7DBF834016BE8F
:10599000C9BF7CBFB6AB22BE283B7CBFA2102FBEC6
:1059A000CDAC7BBFCF6E3BBEBE147BBFC2C547BE76
:1059B00002737ABF011554BE9DC779BF135C60BEE8
:1059C000981279BF7F9A6CBEF85378BFCCCF78BE5F
:1059D000C58B77BFC07D82BE07BA76BF938E88BE67
:1059E000C6DE75BF229A8EBE0BFA74BF31A094BE7C
:1059F000DD0B74BF86A09ABE471473BFE59AA0BEA4
:105A0000521372BF128FA6BE080971BFD47CACBE00
:105A100073F56FBFEF63B2BE9ED86EBF2A44B8BEA7
:105A200093B26DBF4A1DBEBE5E836CBF15EFC3BE91
:105A30000C4B6BBF53B9C9BEA7096ABFCA7BCFBEA7
:105A40003CBF68BF4136D5BED86B67BF80E8DABEC1
:105A5000880F66BF4F92E0BE59AA64BF7533E6BE99
:105A60005A3C63BFBBCBEBBE98C561BFEA5AF1BEDF
:105A7000214660BFCBE0F6BE05BE5EBF275DFCBE23
:105A8000532D5DBFE4E700BF1A945BBF3D9C03BF8D
:105A90006AF259BF824B06BF534858BF9BF508BFF7
:105AA000E59556BF6B9A0BBF31DB54BFDA390EBF99
:105AB000491853BFCDD310BF3D4D51BF2A6813BF06
:105AC0001F7A4FBFD9F615BF029F4DBFC07F18BFC9
:105AD000F8BB4BBFC6021BBF12D149BFD17F1DBF50
